:040000008031222801
:100008007E14803120007F08F9002E00191A0F1E77
:100018001428200060088A005F080A0080311D2823
:10002800991A8F1E1D2820005E088A005D080A00A4
:10003800803179082000FF007E10090080312428D3
:10004800FA01FB01FC01FD0120308400003085002D
:1000580030308231BD228031A030840000308500EC
:1000680020308231BD227E10200081316829200095
:10007800D6005608043E860087010108FF3ED100DD
:10008800FF3003180030D2005608053E860087016D
:1000980001085106520403195D285608053E8600DA
:1000A80087010108013ED300003003180130D40055
:1000B8005F28D301D4015308D1005108D500560850
:1000C800063E860087010108550603198D28500849
:1000D800D1005608033E860087015608053E840075
:1000E800850100080107D2005208860087015108DF
:1000F80081005508D1005608053E86008701510841
:1001080081000130D1005608860087015108810717
:1001180008005608023E8600870101080319B42822
:100128005008D1005608033E860087015608053E50
:100138008400850100080107D20052088600870163
:10014800510881005508D1005608053E86008701F0
:1001580051088100560A860087018101810A08003A
:10016800560A860087010108031DCC285008D100D3
:100178005608033E860087015608053E840085011F
:1001880000080107D2005208860087015108810043
:10019800560A860087018101810A0800F600760860
:1001A800043E860087010108FF3EF100FF30031876
:1001B8000030F2007608053E8600870101087106C6
:1001C80072040319F3287608053E860087010108A2
:1001D800013EF300003003180130F400F528F30164
:1001E800F4017308F1007108F5007608063E8600F0
:1001F800870101087506031923297008F10076089C
:10020800033E860087017608053E840085010008C4
:100218000107F200720886008701710881007508DD
:10022800F1007608053E86008701710881000130DB
:10023800F1007608860087017108810708007608B2
:10024800023E86008701010803194A297008F10057
:100258007608033E860087017608053E84008501FE
:1002680000080107F2007208860087017108810002
:100278007508F1007608053E86008701710881003F
:10028800760A860087018101810A0800760A8600BD
:1002980087010108031D62297008F1007608033EF2
:1002A800860087017608053E84008501000801075D
:1002B800F20072088600870171088100760A8600BC
:1002C80087018101810A08008B170B1791302000E4
:1002D800D0000230D1008231C92281316D30200036
:1002E800D0000230D1008231C32281312230200077
:1002F800DA005A08D5002030DB005B08D60042300F
:10030800823182228131A0302000DA005A08D500DB
:100318002030DB005B08D6004930823182228131EF
:10032800423082319F228131003A031994294230A8
:100338008131DC2181312000DA005A08DC005C08B8
:1003480082315222813194292000D5005508043E7B
:10035800860087010108FF3ED000FF3003180030F7
:10036800D1005508053E8600870101085006510452
:100378000319CA295508053E860087010108013E70
:10038800D200003003180130D300CC29D201D301A8
:100398005208D0005008D4005508063E8600870150
:1003A80001085406031DDA2901300800003008004E
:1003B8002000D300D2015308063E86008701530867
:1003C800053E84008501000801060319062A530822
:1003D800033E860087015308063E84008501000815
:1003E8000107D0005008860087010108D100510894
:1003F800D20053088600870101308102530A860023
:100408008701810152080800F300F2017308063ED3
:10041800860087017308053E8400850100080106EF
:100428000319312A7308033E860087017308063EC4
:100438008400850100080107F00070088600870124
:100448000108F1007108F200730886008701013085
:100458008102730A86008701810172080800200062
:10046800D4005008D3005408033E8600870153087F
:1004780081005108D3005408043E860087015308C0
:1004880081005208D3005408023E860087015308B1
:100498008100540886008701810108002000D800E7
:1004A8008231CF22823149308131A8218231003A0C
:1004B800031D572A8231D222823120005808D700E2
:1004C8005708D000493080313B2082318231CF2219
:1004D800080049308231AB228231003A03197F2A61
:1004E8004930823108228231F4007408F500750819
:1004F8008231B62208008231D52208002000D900B6
:100508005508D7005708D0005608D8005808D10019
:10051800D20159088231332208008231D82282312F
:10052800F7007708F8007808F7007708F0004230FD
:100538008031D22008002000D000500886008701B2
:1005480001080319A92A0130080000300800F0004A
:1005580070088600870101080319B42A01300800D1
:1005680000300800F000700822009A002E001916CA
:100578000800640080010131890BBE2A0034200084
:100588005108E0005008DF00080020005108DE0094
:100598005008DD0008002E00191608002E00191258
:0E05A80008002E001912080022001908080091
:020000040001F9
:0A000E00EC3FFF3B9F3FFF3FFF3F29
:00000001FF
